:020000040800F2
:10000000402400209D0100081326000873220008E8
:1000100011260008850200088D2B00080000000052
:10002000000000000000000000000000AF01000818
:100030007503000800000000B3010008D127000884
:10004000B7010008B7010008B7010008B7010008B0
:10005000B7010008B7010008B7010008B7010008A0
:10006000B7010008B7010008B7010008B701000890
:1000700069030008B7010008B7010008B7010008CC
:10008000B7010008B7010008B7010008B701000870
:1000900089020008B7010008B7010008B70100088D
:1000A000B7010008B7010008B7010008B701000850
:1000B000B7010008B7010008B7010008B701000840
:1000C000B7010008B7010008B7010008B701000830
:1000D000B7010008B7010008B7010008B701000820
:1000E000B7010008B7010008B7010008B701000810
:1000F000B7010008B7010008B7010008B701000800
:10010000B7010008B7010008B7010008B7010008EF
:10011000B7010008B7010008B7010008B7010008DF
:10012000B7010008B7010008B7010008B7010008CF
:10013000B7010008B7010008B7010008B7010008BF
:1001400095020008B7010008B7010008B7010008D0
:10015000B7010008B7010008B7010008B70100089F
:10016000B7010008B7010008B7010008B70100088F
:10017000B7010008B7010008B7010008000000003F
:10018000B7010008B7010008DFF80CD000F068F8EC
:1001900000480047292C00084024002006488047DA
:1001A00006480047FEE7FEE7FEE7FEE7FEE7FEE75C
:1001B000FEE7FEE7FEE7FEE75D280008890100088C
:1001C0002DE9F05F0546002092469B46884606468C
:1001D000814640241BE0284641464746224600F01F
:1001E0002FF853465A46C01A914110D3114618466B
:1001F000224600F016F82D1A67EB01084F462246FA
:100200000120002100F00DF817EB00094E41201EDF
:10021000A4F10104DFDC484631462A464346BDE8E6
:10022000F09F202A04DB203A00FA02F100207047F8
:100230009140C2F1200320FA03F319439040704724
:10024000202A04DB203A21FA02F00021704721FA2B
:1002500002F3D040C2F12002914008431946704792
:10026000064C074D06E0E06840F0010394E8070003
:1002700098471034AC42F6D3FFF78AFFF8300008F5
:1002800018310008FEE70000014800F028BA00001D
:100290002C020020014800F022BA00005402002085
:1002A00038B5DFF854C04FF40074CCF80040002497
:1002B000CCF80840CCF80C400824CCF81040DFF80B
:1002C0003CC0040A8CF800408CF80100080A8CF845
:1002D00002008CF80310100A8CF804008CF805203A
:1002E000180A8CF806008CF807306B466246024903
:1002F000034800F053F838BDFC0300204100002003
:100300002C02002038B5DFF854C040F2FF14CCF8BE
:1003100000400024CCF80840CCF80C400824CCF86D
:100320001040DFF83CC0040A8CF800408CF8010053
:10033000080A8CF802008CF80310100A8CF80400EC
:100340008CF80520180A8CF806008CF807306B46EC
:1003500062460249034800F021F838BDE40300205A
:100360003900002054020020014800F093BC000036
:100370003C0300207047704790F82020012A18BFE6
:10038000022A05D0416A41F4802141620120704770
:1003900000684269114341610020704770B490F8D1
:1003A0002040D0F800C0DCF808C0012C18BF022C97
:1003B00006D0416A41F48021416270BC012070473F
:1003C0001CF0E05F55D0CCF3016CBCF1020F06D9F4
:1003D000416A41F40001416270BC01207047012470
:1003E00004FA0CF41C608C684FF4C0739CB1CD68A7
:1003F00003EB0C162C434D6844EAC5040568AC5168
:100400004FF4C274066804EB0C140D693551097D74
:1004100001290ED108E00D88CC6803EB0C1644EAE4
:1004200045540568AC51EBE701680D5945F48075FA
:100430000D511179D2F805404FF4C67541EA0421F7
:10044000046805EB0C1561511178D2F801204FF4C6
:10045000C47441EA0222016804EB0C140A510068DA
:1004600003EB0C11425842F00102425070BC0020D4
:100470007047416A41F40011416270BC012070472D
:1004800090F82020012A18BF022A05D0416A41F4C1
:1004900080214162012070473D48D0F8002242F09F
:1004A0000102C0F80022D0F8002222F47C52C0F8E9
:1004B0000022D0F800224B6A42EA0322C0F8002250
:1004C0000A7D012302F01F0203FA02F2D0F81C3267
:1004D0009343C0F81C32CB69D3B9D0F80C329343A4
:1004E000C0F80C32B1F80CC04B686CF31F43D1F864
:1004F00014C000EBCC0CCCF84032B1F808C00B684B
:100500006CF31F43D1F814C000EBCC0CCCF8443290
:10051000CB69012B1AD1D0F80C321343C0F80C323E
:10052000B1F800C04B686CF31F43D1F814C000EB66
:10053000CC0CCCF84032B1F808C0CB686CF31F4348
:10054000D1F814C000EBCC0CCCF844328B69002BF2
:10055000D0F804320CBF93431343C0F804320B6944
:10056000002BD0F814320CBF93431343C0F814325D
:10057000096A012904D1D0F81C121143C0F81C12D9
:10058000D0F8001221F00101C0F8001200207047DD
:1005900000640040704710B490F820C0BCF1010F17
:1005A00018BFBCF1020F06D0416A41F480214162BC
:1005B00010BC01207047D0F800C029B1DCF810C091
:1005C0001CF0030F7DD004E0DCF80CC01CF0030F1E
:1005D0007ED04FF4D87C04680CEB011C54F80C401E
:1005E00014F004049460046854F80C4007BF640DD0
:1005F0001460E4085460046854F80CC00CF0020C59
:10060000C2F80CC04FF4DA7C04680CEB011C54F8FF
:100610000C4004F00F041461046854F80C40C4F357
:1006200007249461046854F80CC04FEA1C4CC2F8CB
:1006300014C04FF4DC72D0F800C002EB01125CF879
:1006400002C083F800C0D0F800C05CF802C04FEAD6
:100650001C2C83F801C0D0F800C05CF802C04FEA3F
:100660001C4C83F802C0D0F800C05CF80220120EC7
:10067000DA704FF4DE72D0F800C002EB01125CF8C1
:1006800002C083F804C0D0F800C05CF802C04FEA92
:100690001C2C83F805C0D0F800C05CF802C04FEAFB
:1006A0001C4C83F806C0D0F800C05CF80220120E83
:1006B000DA71006800290CBFC168016941F02001AE
:1006C00000E005E00CBFC1600161002010BC704774
:1006D000416A41F40011416210BC012070472DE9CC
:1006E000F05F0546006800244669D0F804908768EA
:1006F000D0F80CB0D0F810A0D0F8188016F0010F88
:1007000025D017F0010F07D00121816017F0020FEB
:100710007CD0284600F0B7FA17F4807F09D029680A
:100720004FF48070886017F4007F70D0284600F086
:10073000ACFA17F4803F0AD029684FF48030886003
:1007400017F4003F00F0B980284600F0A0FA16F038
:10075000080F18BF1BF0100F04D02968102044F4B4
:100760000074C86016F0040F4FF0080718BF1BF0A4
:10077000080F04D02868C760284600F0D9F916F0A1
:10078000020F07D02868C06810F0030F1CBF28466E
:1007900000F0D0F916F0400F18BF1AF0100F04D077
:1007A0002968102044F48064086116F0200F18BFF7
:1007B0001AF0080F04D028680761284600F02CFAC8
:1007C00016F0100F07D02868006910F0030F1CBF47
:1007D000284600F022FA16F4003F18BF19F0100F57
:1007E00005D0296810204860284600F017FA16F452
:1007F000803F18BF19F0080F04D0286847602846CA
:1008000000F046FA16F4004F78D001E035E044E0FD
:1008100019F0040F6FD016F4807F1CBF18F0010F81
:1008200044F0010416F4007F1CBF18F0020F44F0DE
:10083000020416F4806F1CBF18F0040F44F0040487
:1008400016F4006F18BF18F0700F54D008F0700045
:10085000402808BF44F0400448D03EDC102808BFC0
:1008600044F0080442D0202808BF44F010043DD0D2
:10087000302808BF44F0200438E017F0040F18BFF8
:100880004FF400647FF448AF17F0080F0ABF284602
:100890004FF4805400F0F6F93EE717F4806F18BF6C
:1008A00044F400547FF445AF17F4006F0ABF2846A4
:1008B00044F4804400F0E8F93BE717F4802F18BFB8
:1008C00044F400447FF443AF17F4002F0ABF2846D6
:1008D00044F4803400F0DAF939E7502808BF44F0D6
:1008E000800403D0602808BF44F4807428688169BC
:1008F00021F070018161296804204860002C08BF44
:10090000BDE8F09F686A204368622846FFF742FE10
:10091000BDE8F09F002804BF0120704770B5044671
:1009200090F82000002804BF204600F089F82068D5
:10093000016821F00201016000F0BCFC054620685E
:1009400040684FF0050610F0020F09D000F0B2FC2D
:10095000401B0A2817D82068406810F0020FF5D114
:100960002068016841F00101016000F0A3FC054628
:100970002068406810F0010F12D100BF00F09AFC0F
:10098000401B0A2807D9606A40F40030606284F88E
:100990002060012070BD2068406810F0010FEDD08C
:1009A000207E0128206801680CBF41F0800121F001
:1009B00080010160607E0128206801680CBF41F061
:1009C000400121F040010160A07E012820680168FB
:1009D0000CBF41F0200121F020010160E07E0128E0
:1009E000206801680CBF21F0100141F01001016086
:1009F000207F0128206801680CBF41F0080121F028
:100A000008010160607F0128206801680CBF41F087
:100A1000040121F004010160D4E902010843D4E992
:100A20000412114308436168491E08432168C861E4
:100A300000206062012084F82000002070BD0000CA
:100A4000F0B587B0002100910191029103910491CA
:100A5000324B0668324918680224421C0925314885
:100A6000A6F180474FF0030CB7F5C84710D0B7F593
:100A700080671CBF07B0F0BD066846F08066066060
:100A80000668012A06F0806605961A602BD122E0DE
:100A90001A60012A07D1026842F000720260006801
:100AA00000F000700590086840F0080008600868D1
:100AB000CDE900C400F00800CDE904506946CDF846
:100AC0000CC0194800F0D8FA00221146142000F09A
:100AD00063FC14201EE0026842F0007202600068AD
:100AE00000F000700590086840F002000860086897
:100AF000694600F0020005906020CDE90004CDE9D0
:100B000003C50A4800F0B8FA00221146402000F060
:100B100043FC402000F030FC07B0F0BD2400002072
:100B20003038024040380240000C024000040240CD
:100B30007047000010B50446324894B0844225D175
:100B40000AAB0CAA00212046FFF725FD0C98A0F265
:100B5000012006281AD82C49C0B200EB8002087088
:100B60002A4800EB420130F812300B81BDF82830E2
:100B70005BBA20F81230BDF82A0040BA4880BDF8B0
:100B80002C0040BA88809DF82E008871204884424D
:100B90001CBF14B010BD08AB01AA00212046FFF70E
:100BA000FAFC0198A0F500711A48053916D0012900
:100BB0001CBF14B010BD41894182BDF8201049BA54
:100BC0004181BDF8221049BA8181BDF8241049BA8B
:100BD000C1819DF82610017414B010BD01880181F7
:100BE000BDF8201049BA0180BDF8221049BA4180F1
:100BF000BDF8241049BA81809DF82610817114B087
:100C000010BD00002C020020380000209C030020B2
:100C1000540200202C0400207047704770470000E9
:100C200070B5044690F82000012804D0606A40F4B2
:100C3000002060621CE0022084F820002068016827
:100C400021F00101016000F035FB05462068406895
:100C500010F0010F13D000BF00F02CFB401B0A283E
:100C600008D9606A40F400306062052084F82000F2
:100C7000012070BD2068406810F0010FECD1002009
:100C8000606270BD7047704770477047704770472B
:100C9000704700002DE9F84304460027009771488B
:100CA0004FF41651A56D0068B0FBF1F92E6894F869
:100CB0005C00082101FA00F0304211D0206802687F
:100CC00012F0040F0CD0026822F00402026094F8C3
:100CD0005C0001FA00F0A860606D40F00100606502
:100CE00094F85C004FF0010808FA00F0304209D097
:100CF0002168496911F0800F04D0A860606D40F050
:100D00000200606594F85C1004208840304209D0ED
:100D10002168096811F0020F04D0A860606D40F0EE
:100D20000400606594F85C1010208840304220D0A8
:100D30002168096811F0080F1BD0A86020680168BD
:100D400011F4802F09D0006810F4002F02D0A16C9C
:100D500079B10CE0216C51B90BE0016811F4807F8E
:100D600003D1016821F008010160216C09B120461E
:100D7000884794F85C1020208840304249D0216890
:100D8000096811F0100F44D0A86094F835000528C8
:100D90002068016809D011F4802F2AD0006810F46F
:100DA000002F23D0E16B19B331E021F0160101606F
:100DB0002068416921F080014161206C002804BF56
:100DC000A06C002804D02068016821F008010160AF
:100DD00094F85C003F2101FA00F0A86084F83470B8
:100DE00084F83580216DC1BBBDE8F883616C71B9B1
:100DF0000FE0016811F4807F07D1016821F0100134
:100E0000016084F8347084F83580E16B09B12046C4
:100E10008847606D002808BFBDE8F883606D10F05A
:100E2000010F15D0052084F835002068016821F0F5
:100E3000010101600098401C0090484504D82068DA
:100E4000006810F0010FF5D184F8347084F8358013
:100E5000E16C002908BFBDE8F883204601B0BDE879
:100E6000F04308473400002070B5044600F022FA31
:100E70000546002C04BF012070BD002684F83460B4
:100E8000022084F835002068016821F0010101602A
:100E90002068006810F0010F10D000BF00F00AFABF
:100EA000401B052805D920206065032084F8350003
:100EB00070BD2068006810F0010FEFD1216808684C
:100EC0003B4A1040D4E901231A43D4E9033C43EAE6
:100ED0000C031A4363691A43A3691A43E3691A436B
:100EE000236A1A431043626A042A03D1D4E90B230C
:100EF0001A4310430860D4F800C0DCF81400012342
:100F000020F00701606A40EA0102042835D1A16A95
:100F1000E06A0A4318B3A56955B1B5F5005F14D06E
:100F200000291CBF0129022921D003291CD024E05B
:100F300019B1012905D002291FD110F0807F1CD0E2
:100F400015E0B0F1C07F18D111E081B1012907D0BF
:100F500002290CD0032908BFB0F1C07F07D00CE0F4
:100F600010F0807F03D108E010F0807F05D0402092
:100F7000606584F83530012070BDCCF814202068FD
:100F80000C4AC1B21039A2FB01210B4A09090329FD
:100F9000525CE2656FF3090088BF001D3F2191405C
:100FA000A0658160666584F83530002070BD000062
:100FB0003F8010F0ABAAAAAAD830000870B490F80D
:100FC0003450846D4FF0000C012D02BF022070BC24
:100FD0007047012580F8345090F835600025012EC7
:100FE0001CBF80F834504FF0020C02D070BC604639
:100FF0007047022680F83560456505682E6826F43E
:1010000080262E6005686B608368402B036803BFF1
:101010009A600268D16099601CBF0168CA6090F84C
:101020005C103F2202FA01F1A16001680A6842F0F7
:1010300016020A60016C21B101680A6842F00802D8
:101040000A600068016841F001010160CEE700001C
:1010500070B5044600F02EF90546B4F1FF3F02D00A
:1010600004480078044400F025F9401BA042FAD35C
:1010700070BD0000280000202DE9F84F0022012754
:10108000874D03264FF00F080B6807FA02FC03EAAE
:101090000C03634540F0FD804C68012C18BF022C06
:1010A00003D0112C18BF122C18D1D0F8089054007E
:1010B00006FA04FA29EA0A09D1F80CA00AFA04F49B
:1010C00044EA09048460446824EA0C0C0C79C4F3F3
:1010D0000014944044EA0C0CC0F804C0D0F80C9002
:1010E0004FEA420CD1F808A006FA0CF429EA0409E8
:1010F0000AFA0CFA4AEA0909C0F80C90D1F80490EF
:10110000B9F1020F18BFB9F1120F15D14FEAD20988
:1011100000EB890ADAF820B04FEA42794FEAD96940
:1011200008FA09FE2BEA0E0BD1F810E00EFA09F9C5
:1011300049EA0B09CAF82090D0F8009029EA040483
:1011400091F8049009F0030909FA0CFC4CEA040C2C
:10115000C0F800C0D1F804C01CF0805F7DD0D5F885
:1011600000C04CF4804CC5F800C0D5F800C00CF4A9
:10117000804CCDF800C022F0030C0CF1804404F543
:101180009834D4F808984FEA827C4FEA1C7C08FA1D
:101190000CFA29EA0A09A0F1804ABAF5003A38D0D7
:1011A000A0F1804ABAF5013A08BF4FF0010A30D0E9
:1011B000A0F1804ABAF5023A08BF4FF0020A28D0DF
:1011C000A0F1804ABAF5033A08BF4FF0030A20D0D5
:1011D000A0F1804ABAF5043A08BF4FF0040A18D0CB
:1011E000A0F1804ABAF5053A08BF4FF0050A10D0C1
:1011F000A0F1804ABAF5063A08BF4FF0060A08D0B7
:10120000A0F1804ABAF5073A0CBF4FF0070A4FF039
:10121000080A0AFA0CFC4CEA090CC4F808C8214C6C
:10122000D4F800C0D1F804902CEA030C19F4803FE4
:1012300018BF4CEA030CC4F800C01B4CD4F800C023
:10124000D1F804902CEA030C19F4003F18BF4CEAC3
:10125000030CC4F800C0154C00E01AE0D4F800C03C
:10126000D1F804902CEA030C19F4801F18BF4CEA43
:10127000030CC4F800C00E4CD4F800C0D1F80490A0
:101280002CEA030C19F4001F18BF4CEA030CC4F835
:1012900000C0521C102AFFF4F7AEBDE8F88F000022
:1012A00044380240003C0140043C0140083C0140FD
:1012B0000C3C014001488068704700002800002075
:1012C000024881680278114481607047280000203C
:1012D0000B4810B5016841F400710160016841F4E8
:1012E00080610160016841F480710160032000F0B9
:1012F00085F8002000F006F800F024F8002010BD6A
:10130000003C024070B50D4D04464FF47A712878C8
:10131000B1FBF0F00A490968B1FBF0F000F07AFB8C
:1013200048B9102C07D200222146501E00F034F894
:1013300000206C6070BD012070BD000028000020FE
:10134000340000200A4881B0016841F48041016006
:10135000006800F4804000900648016841F0805128
:101360000160006800F08050009001B070470000FC
:1013700044380240403802400028B8BF704700F0AF
:101380001F01012202FA01F14009800000F1E02072
:10139000C0F8001170470000174B10B41B68C3F36E
:1013A0000223C3F1070CBCF1040F88BF4FF0040CFB
:1013B0001C1D072C34BF0023DB1E012404FA0CFC87
:1013C000ACF1010C0CEA0101994004FA03F35B1E35
:1013D0001A40114300284FEA0111A1BF00F1E0209B
:1013E00080F8001410BC704700F00F0000F1E020FE
:1013F00080F8141D10BC70470CED00E0074900F0A8
:1014000007000A684FF6FF031A4042EA002040F046
:10141000FD7040F080600860704700000CED00E057
:10142000002804BF012070472DE9F0474D4E0446C7
:101430000F46306801F0FF0800F00F00B84206D2F6
:1014400086F80080306800F00F00B84261D1206853
:10145000454D10F0020F14D010F0040F03D028688F
:1014600040F4E0502860207810F0080F03D028687E
:1014700040F4604028602868A16820F0F00008432C
:101480002860207810F0010F37D0606837490128B4
:1014900023D0022818BF0328096823D011F0020FB7
:1014A00037D0296821F0030108432860FFF702FFC5
:1014B00081462868616800F00C00B0EB810F18BF0E
:1014C00041F2883A19D000BFFFF7F4FEA0EB090003
:1014D00050450BD90320BDE8F087096811F4003F9F
:1014E000DFD116E011F0007FDBD112E028686168DF
:1014F00000F00C00B0EB810FE6D1306800F00F0077
:10150000B84209D986F80080306800F00F00B84270
:1015100002D00120BDE8F087207810F0040F05D03C
:101520002868E16820F4E05008432860207810F033
:10153000080F06D02868216920F4604040EAC10005
:10154000286000F03BF82968094AC1F30311515C97
:10155000C8400849086008480068FFF7D3FE00202B
:10156000BDE8F087003C02400838024000380240E5
:10157000E0300008340000202C0000200448054919
:1015800000680968044AC1F38221515CC840704771
:101590003400002008380240F030000804480549B3
:1015A00000680968044AC1F34231515CC840704781
:1015B0003400002008380240F03000081848006865
:1015C00010F00C02174808BF70471749042A04BFDF
:1015D00008467047082A18BF704710B5134C226898
:1015E000236802F03F0213F4800F08D02068002324
:1015F000C0F38810A0FB0101FEF7E2FD07E02168BF
:101600000023C1F38811A1FB0001FEF7D9FD216879
:10161000C1F30141491C4900B0FBF1F010BD0000CD
:10162000083802400024F400001BB70004380240D0
:10163000002804BF012070472DE9F84F04460078C8
:10164000DFF8AC8310F0010FA8F1040558D008F1C1
:101650000400016801F00C01042909D0006800F0C1
:101660000C0008280DD1D8F8000010F4800F08D025
:10167000286810F4003F43D06068002800F0B18172
:101680003EE06068B0F5803F19D0B0F5A02F286823
:101690000CBF40F4802020F48030286028680CBF04
:1016A00040F4803020F4802028606068B8B1FFF7F3
:1016B00001FE0646286810F4003F05D020E02868A7
:1016C00040F480302860F0E7FFF7F4FD801B6428C9
:1016D00000F22781286810F4003FF5D010E0FFF7F2
:1016E000E9FD0646286810F4003F09D0FFF7E2FD47
:1016F000801B642800F21581286810F4003FF5D1A2
:101700002078BC4F10F0020F47D0BB48016811F0A1
:101710000C0F15D0006800F00C00082804BFD8F8A2
:10172000000010F4800F0BD0E06818B3012038607F
:10173000FFF7C0FD0646286810F0020F09D011E03F
:10174000286810F0020F1CBFE06801280AD000F0E2
:1017500048B9FFF7AFFD801B02287DD8286810F03C
:10176000020FF6D02868216920F0F80040EAC10095
:10177000286012E000203860FFF79CFD06462868CC
:1017800010F0020F09D000BFFFF794FD801B022864
:1017900062D8286810F0020FF6D1207810F0080FF8
:1017A0002AD09648964E616999B101210160FFF7F0
:1017B00081FD8146306810F0020F1DD1FFF77AFDE0
:1017C000A0EB0900022847D8306810F0020FF5D0CE
:1017D00012E000210160FFF76DFD8146306810F0D6
:1017E000020F09D0FFF766FDA0EB0900022833D8ED
:1017F000306810F0020FF5D1207810F0040F77D088
:1018000080484FF0000B006810F0805F0AD17D48DF
:10181000016841F08051016000684FF0010B00F059
:1018200080500090784E306810F4807F16D1306878
:1018300040F480703060FFF73DFD8146306810F461
:10184000807F0BD1FFF736FDA0EB0900022868D896
:10185000306810F4807F00E063E0F3D0A0686B4E46
:1018600001281BD0052830680CBF40F0040020F090
:101870000100306030680CBF40F0010020F004002F
:10188000C6F80000A06841F2883AB8B1FFF712FD2F
:101890008146306810F0020F05D021E0306840F03A
:1018A00001003060EEE7FFF705FDA0EB09005045B1
:1018B00037D8306810F0020FF5D011E0FFF7FAFCCE
:1018C0008146306810F0020F0AD000BFFFF7F2FC2B
:1018D000A0EB0900504524D8306810F0020FF5D174
:1018E000BBF1000F04D04748016821F0805101602E
:1018F000A069E8B34049096801F00C01082950D0FB
:1019000002284FF0000038660ED0FFF7D3FC0446E3
:10191000286810F0007F67D0FFF7CCFC001B02287E
:101920003AD90320BDE8F88FFFF7C4FC06462868C3
:1019300010F0007F09D000BFFFF7BCFC801B02281D
:10194000EFD8286810F0007FF6D1D4E907010843EA
:10195000A16A2F4A490802EB0141626A41EA8211F9
:10196000084394F82C1040EA0160C8F8000000E039
:101970003AE001203866FFF79DFC0446286810F025
:10198000007F31D1FFF796FC001B0228C9D82868D8
:1019900010F0007FF6D027E0286810F0007FBBD160
:1019A00022E0012808BFBDE8F88FD8F80000E269FE
:1019B00000F48001914214D1226A00F03F0191426B
:1019C0000FD147F6C071626A0140914209D1A26A03
:1019D00000F44031914204D1E16A00F07060884225
:1019E00002D00120BDE8F88F0020BDE8F88F00008C
:1019F000043802400000474208380240800E474247
:101A00007438024040380240007000407038024094
:101A10000000FFFF411EB1F1807F24BF012070470D
:101A20004FF0E0204161054AF02182F8141D0021A9
:101A30008161072101610020704700000FE000E094
:101A400090F83C20012A04BF02207047012280F850
:101A50003C20CA688B6822F440721A434B6822F417
:101A600080621A430B6822F400621A430B6922F465
:101A700080521A434B6922F400521A43C96922F476
:101A80008042114302685164002180F83C100846EE
:101A9000704790F83C20012A04BF0220704730B400
:101AA000012380F83C30022280F83D20026854680F
:101AB000D2F808C00D6824F070042C43546002680A
:101AC000A2F18044B4F5803418BFB2F1804F1DD02C
:101AD000A2F18044B4F580641CBFA2F18044B4F547
:101AE000006413D0A2F18044B4F540641CBFA2F19D
:101AF0008044B4F5823409D0A2F18044B4F5A03416
:101B00001CBFA2F18044B4F5C05405D149682CF043
:101B1000800C41EA0C01916080F83D30002180F892
:101B20003C1030BC08467047002804BF01207047B5
:101B300010B5044690F83D0028B9002084F83C0018
:101B4000204600F00DF8022084F83D00211D206899
:101B500000F092FE012084F83D00002010BD00003E
:101B600001680F48A1F1804281B0B2F580320ED0F9
:101B7000B2F580621CBF01B07047016841F00201FC
:101B80000160006800F00200009001B07047016839
:101B900041F001010160006800F00100F4E700007D
:101BA0004438024090F83C20012A0DBF0220012356
:101BB00080F83C30704730B4022280F83D20D0F8E5
:101BC00000C0DCF8082022F0770222F47F42CCF833
:101BD00008200A68502A3DD00CDC202A74D004DC8E
:101BE000002A18BF102A51D18CE0302A6CD0402A2C
:101BF0006CD091E0602A4AD0702A06D0B2F5805F9E
:101C000044D0B2F5005F12D086E0D1E9014C026801
:101C1000C968956844EA012125F47F4541EA0C0131
:101C20002943916001688A6842F0770210E00268F7
:101C3000D1F804C08C68C96895684CEA012125F484
:101C40007F4521432943916001688A6842F48042BC
:101C50008A6061E00268D1F804C0C968146A156A34
:101C600025F001051562956924F00A0425F0F005B8
:101C700045EA011144EA0C0C9161C2F820C00168E8
:101C80008A6822F0700242F057028A6044E00268DB
:101C9000D1F804C0C968146A24F01004146295696C
:101CA000146A25F4704545EA013124F0A00444EAA1
:101CB0000C1C9161C2F820C001688A6822F0700291
:101CC00042F067028A6027E01CE0FFE70268D1F873
:101CD00004C0CC68116A156A25F001051562956982
:101CE00021F00A0125F0F00545EA041441EA0C014F
:101CF0009461116201688A6822F0700242F0470222
:101D00008A6009E00168D1F808C02CF0700C4CEA38
:101D1000020242F007028A6080F83D30002180F81C
:101D20003C1030BC0846704770B586B00021009169
:101D30000191029103910491016823480225012435
:101D4000A1F18042B2F580322CD0B2F580621CBF86
:101D500006B070BD016841F480710160016801F452
:101D600080710591016841F004010160006803265B
:101D700000F004000590C020CDE900056946134835
:101D80000496CDE90245FFF777F94020CDE900053B
:101D90000F4869460496CDE9024500BFFFF76CF98C
:101DA00006B070BD016841F0100101600068CDE926
:101DB000024500F0100005904FF4D440CDE9000535
:101DC000694604480494E9E73038024000200240A4
:101DD000000802400010024090F83C30012B04BF84
:101DE000022070472DE9F001012480F83C400223D5
:101DF00080F83D30894BDFF828C242B1042A48D030
:101E0000082A7CD00C2A00F0CC8000F0FDB80268D3
:101E1000156A25F001051562156A56689769D1F8AB
:101E2000008027F0730748EA0707D1F8088025F0FB
:101E3000020548EA05059A4218BF624507D1D1F864
:101E40000C8025F0080548EA050525F004059A42AE
:101E500018BF624509D1D1F814C026F440734CEA8A
:101E60000303D1F818C04CEA0306566097614B682B
:101E7000536315620268936943F008039361026833
:101E8000936923F004039361026893690969194314
:101E900043E00268156A25F010051562156A566858
:101EA0009769D1F8008027F4E64747EA0827D1F878
:101EB000088025F0200545EA08159A4218BF6245BA
:101EC00007D1D1F80C8025F0800545EA081525F0EA
:101ED00040059A4218BF624509D1D1F814C026F4D2
:101EE000406343EA8C03D1F818C043EA8C0656607D
:101EF00097614B68936315620268936900E00EE096
:101F000043F4006393610268936923F480639361EF
:101F100002689369096943EA0121916174E00268EA
:101F2000156A25F480751562166A5568D769D1F867
:101F3000008027F0730748EA0707D1F8088026F4E5
:101F4000007646EA08269A4218BF624507D1D1F8C2
:101F50000C8026F4006646EA082626F480669A423B
:101F600018BF624509D1D1F814C025F4405343EAA3
:101F70000C13D1F818C043EA0C155560D7614B68B3
:101F8000D36316620268D36943F00803D361026821
:101F9000D36923F00403D3610268D3690969194343
:101FA00031E00268156A25F480551562176A556894
:101FB000D669D1F8008026F4E64646EA0826D1F82C
:101FC000088027F4005747EA08379A4218BF62454D
:101FD00005D1D1F814C025F4804343EA8C1555602F
:101FE000D6614B68136417620268D36943F40063D7
:101FF000D3610268D36923F48063D3610268D36933
:10200000096943EA0121D16180F83D40002180F84F
:102010003C10BDE8F0010846704700000000014098
:1020200000040140002804BF0120704710B5044699
:1020300090F83D0028B9002084F83C00204600F0CC
:102040000CF8022084F83D00211D206800F014FCEB
:10205000012084F83D00002010BD70477047002823
:1020600004BF0120704770B5044690F83900002580
:1020700020B984F83850204600F022F8242084F853
:1020800039002068C16821F40051C160204600F089
:10209000B3FC2068016921F4904101612068416925
:1020A00021F02A0141612068C16841F40051C160FA
:1020B000E563202084F8390084F83A00002070BDE0
:1020C00070B586B0002506460095019502950395EA
:1020D00004950068A0F18041B1F590411CBF06B0A5
:1020E00070BD1E48016841F480210160006800F461
:1020F000802005901A48016841F0040101600068E1
:10210000694600F0040005904FF440600090022002
:10211000019003200390072004901248FEF7ACFFC3
:10212000124C114820604FF00060C4E901054014D2
:10213000C4E9035080106561C4E906504FF4403093
:10214000C4E908052046FEF78FFE002818BFFEF7F9
:1021500012F97463A66306B070BD000040380240F7
:102160003038024000080240286002403C03002052
:1021700038B5044690F83A0020283DD1002912BF16
:10218000002A012038BD94F83800012834D00120FD
:1021900084F83800A162A2850025E563222084F836
:1021A0003A00636B1548D863636B15481864636B1A
:1021B0001448D864606B134605650846D4F834C0EB
:1021C000216802466046091DFEF7F8FE2068016896
:1021D0004168009184F83850C16841F48071C16051
:1021E0002068416941F0010141612068416941F085
:1021F00040014161002038BD022038BDAF290008F0
:10220000ED2900084129000818480188C1F30A0295
:10221000A0F114010A804278D308827843EA42137D
:10222000C3F30A034B80C378920942EA830302791D
:1022300043EA8223C3F30A038B805308427943EABB
:10224000C213C3F30A03CB8093090B72C2F30112CA
:102250004A72C2884A8102898A814289CA81027B84
:102260000A74427B4A74C089488270476800002023
:102270007047FEE70F4810B50D490160032141602A
:1022800000214FF410228160C0E903124FF40012C4
:102290004261017641768176C17601774177FEF71A
:1022A00039FB002808BF10BDBDE81040FEF763B839
:1022B000006400402C0200200F4810B50D49016059
:1022C0000321416000214FF410228160C0E9031214
:1022D0004FF400124261017641768176C176017732
:1022E0004177FEF717FB002808BF10BDBDE810407E
:1022F000FEF741B80068004054020020094808B5C4
:10230000016841F4001101600068002200F400102F
:10231000009011460C20FFF73FF8BDE808400C2064
:10232000FFF72AB8303802401D4881B0016841F0FB
:1023300002010160016801F002010091016841F0B1
:1023400001010160016801F001010091016841F0A3
:1023500008010160016801F008010091016841F085
:1023600004010160016801F004010091016841F479
:1023700080710160016801F480710091016841F091
:1023800080010160016801F080010091016841F065
:1023900010010160006800F01000009001B070476B
:1023A0003038024010B596B0002410941494129462
:1023B0001394159400941194019403940494059437
:1023C0003E4802940694089409940A940B940C9441
:1023D0000D940E9438490F940160A721C0E90114AF
:1023E00044F61F61C0E9031444618461FFF79CFB5C
:1023F000002818BFFDF7BFFF4FF48050109010A9C0
:102400002E48FFF7CFFB002818BFFDF7B4FF2B487D
:10241000FFF708FE002818BFFDF7ADFF149414A9BC
:1024200026481594FFF735FB002818BFFDF7A3FFDA
:10243000602000904FF4FA60CDE901040394049405
:102440000594002269461D480694FFF7C5FC002844
:1024500018BFFDF790FF042269461848FFF7BCFC3F
:10246000002818BFFDF787FF082269461348FFF7C9
:10247000B3FC002818BFFDF77EFF0C2269460F4809
:10248000FFF7AAFC002818BFFDF775FF08944FF46A
:102490000050CDE90C400A9409940B9408A9074810
:1024A0000F94FFF7CDFA002818BFFDF764FF03482B
:1024B000FFF73AFC16B010BD000001407C0200207E
:1024C00010B596B00024109414941294139415949B
:1024D0000094119401940394049405943A4802944E
:1024E0000694089409940A940B940C940D940E94F9
:1024F00034490F940160A721C0E9011444F61F611B
:10250000C0E9031444618461FFF70EFB002818BF83
:10251000FDF731FF4FF48050109010A92A48FFF7C3
:1025200041FB002818BFFDF726FF2748FFF77AFD7B
:10253000002818BFFDF71FFF149414A92248159412
:10254000FFF7A7FA002818BFFDF715FF60200090DD
:102550004FF4FA60CDE90104039404940594002239
:10256000694619480694FFF737FC002818BFFDF7A5
:1025700002FF042269461448FFF72EFC002818BF0A
:10258000FDF7F9FE082269460F48FFF725FC0028F1
:1025900018BFFDF7F0FE08944FF40050CDE90C4051
:1025A0000A9409940B9408A907480F94FFF748FA76
:1025B000002818BFFDF7DFFE0348FFF7B5FB16B094
:1025C00010BD000000040140BC0200200E4810B500
:1025D0000C4901600D4941604FF480518160002138
:1025E0004FF48062C0E903120C22C0E90521C161E9
:1025F000FFF735FD002808BF10BDBDE81040FDF70E
:10260000BABE000000480040FC020020A086010085
:10261000FEE77047002804BF9FED550A7047D0EDD4
:10262000101AC0ED111A90ED0F1A80ED101AC0EDBE
:10263000060A80ED070A30EEC00A80ED0F0A017825
:1026400011B101294FD08FE0D0ED010A60EE801A60
:10265000C0ED091AD0ED0A0A90ED022A42EE000AF6
:1026600030EE410AC0ED0A0A90ED0D2A80ED0E2AE7
:1026700090ED0C2A80ED0D2A80ED0C0A90ED031AE6
:1026800021EE001A80ED0B1A90ED050AF4EEC00A57
:10269000F1EE10FAC8BF80ED0A0A0CDCB1EE400A78
:1026A000F4EEC00AF1EE10FAD8BFF0EE400AC0ED29
:1026B0000A0AB0EE600A31EE800A30EE010A80EDBF
:1026C000080AD0ED040AB4EEE00AF1EE10FA3FDC9D
:1026D000F1EE600AB4EEE00AF1EE10FA42DC00BF5F
:1026E000B0EE600A3EE070EE410A90ED012A60EE25
:1026F000820AC0ED090A90ED022A22EE002A80ED3E
:102700000A2AD0ED0D2A70EE820AC0ED0E2AD0ED15
:102710000C2AC0ED0D2AF0EE002A01EE620A30EE1E
:10272000210A80ED0C0A90ED031A21EE000A80EDDB
:102730000B0A30EE800AD0ED080A30EE200A80ED58
:10274000080AD0ED040AB4EEE00AF1EE10FA02DD58
:10275000C0ED080A08E0F1EE600AB4EEE00AF1EE1E
:1027600010FABDDD80ED080A90ED080A7047000000
:1027700000000000002814BF002A7047017092ED8D
:10278000001A80ED011A92ED011A80ED021A92ED05
:10279000021A80ED031A80ED040A9FED0C0AC0EDC9
:1027A000050A80ED0E0A80ED0D0A80ED0C0A80ED21
:1027B000080A80ED0B0A80ED0A0A80ED090A80ED17
:1027C000110A80ED100A80ED0F0A7047000000002A
:1027D000FEF776BD30B593B000241E4802940394F2
:1027E000049405940C940D940E940F941094016825
:1027F00041F080510160006800F08050119016484F
:10280000016841F4804101600068022500F48040C5
:10281000119001200090000401908001CDE9065044
:1028200006200890A820CDE9090504200B906846F1
:10283000FEF7FEFE0F20CDE90C054FF4A050CDE9C8
:102840000E40E802109005210CA8FEF7E9FD13B038
:1028500030BD00004038024000700040044801686C
:1028600041F47001016003494FF000600860704757
:1028700088ED00E008ED00E0F0B402682B4B2C4C32
:102880002C4D2D4EDFF8B4C0984218BFB0F1804FE8
:1028900007D0A04218BFA84203D0B04218BF60457D
:1028A00003D14F6822F070023A43984218BFB0F14A
:1028B000804F25D0A04218BFA84221D0B04218BFF7
:1028C00060451DD0A0F18044B4F5A0341CBFA0F138
:1028D0008044B4F5A23413D0A0F18044B4F5A434FC
:1028E0001CBFA0F18044B4F5C05409D0A0F18044CD
:1028F000B4F5E0541CBFA0F18044B4F5005403D1FA
:10290000CC6822F4407222434C6922F080022243B8
:1029100002608A68C2620A688262984212BF604599
:102920000969016301214161F0BC70470000014069
:102930000004004000080040000C0040000401407A
:1029400010B5806B0168496990F839C0C1F3C011B6
:1029500000222023BCF1210F0AD149B1C2840168B1
:10296000D1F80CC02CF0C00CC1F80CC080F8393084
:102970000168D1F814C090F83A40CCF3801C222CA6
:102980000ED1BCF1000F0BD0C285CA6822F4907240
:10299000CA6001684A6922F001024A6180F83A304F
:1029A000C16B41F01001C163FFF758FB10BD10B5BA
:1029B0000146806B0968096811F4807F13D10021FA
:1029C000C1850168CA6822F48072CA6001684A69D8
:1029D00022F001024A6101684A6922F040024A611C
:1029E000202180F83A10FFF70FFC10BD10B5806B66
:1029F000FFF73EFC10BD00002DE9F04104460068E1
:102A00000169E26821F44051114301612169A06824
:102A1000E26908436169114308432168CA6822F4E6
:102A2000037222F414421043C86020684169A2690D
:102A300021F4407111434161E16919263227B1F552
:102A4000004F4F4A4F48504D21684FF0000825D0A5
:102A5000814218BF914270D1FEF7A0FD61688B0FD3
:102A60008A00A0FB0601FDF7ABFB0146A5FB012098
:102A700040096FF01802424301EB820107EB01119C
:102A8000A5FB0121490901F0F00202EB001001F061
:102A90000F01084421688860BDE8F081814218BFB9
:102AA000914224D1FEF77AFD61684A18A0FB060125
:102AB00048EB0803FDF784FB0146A5FB0120420912
:102AC00008466FF01801514300EB810007EBC0008E
:102AD000A5FB00101301400900F0F80103EB4101D0
:102AE00000F00700084421688860BDE8F081FEF727
:102AF00045FD61684A18A0FB060148EB0803FDF795
:102B00005FFB0146A5FB0120420908466FF0180152
:102B1000514300EB810007EBC000A5FB001013013F
:102B2000400900F0F80103EB410100F00700084400
:102B300021688860BDE8F081FFE7FEF71FFD61684E
:102B40008B0F8A00A0FB0601FDF73AFB0146A5FBAF
:102B5000012040096FF01802424301EB820107EBAC
:102B60000111A5FB0121490901F0F00202EB00105F
:102B700001F00F01084421688860BDE8F081000081
:102B800000140140001001401F85EB51FEE702E0F8
:102B900008C8121F08C1002AFAD1704770470020E8
:102BA00001E001C1121F002AFBD1704700B58BB0B4
:102BB00000200121CDE906010891009001900290CA
:102BC00003900590049069460C48FDF759FC0B48AA
:102BD000FEF726F802210948FDF7CEFB0E200990EA
:102BE000059069460648FDF74BFC0548FEF718F8C6
:102BF00002210348FDF7C0FB0BB000BD2C020020F2
:102C00005402002000F00300024900EB800001EBB9
:102C1000400070479C0300200048704736040020A5
:102C2000004870472C0400202DED048BFEF750FB6C
:102C3000FFF7D0FDFFF778FBFFF760FBFFF740FCE5
:102C4000FFF7B0FBFFF7C2FCFFF714FBFFF734FB05
:102C50009FEDFE8AF0EE480ADFEDFD8AFD4A002175
:102C6000B0EE680AFC48FFF785FDF0EE480AB0EECA
:102C7000680AF84A0021F948FFF77CFDF0EE480A9F
:102C8000B0EE680AF34A0021F548FFF773FDF0EE55
:102C9000480AB0EE680AEF4A0021F248FFF76AFDE1
:102CA000F0EE480ADFEDF08AEA4A0021B0EE680A49
:102CB000EE48FFF75FFDF0EE480AB0EE680AE54A1D
:102CC0000021EB48FFF756FD0020FFF79BFFE94C82
:102CD00020600120FFF796FF60600220FFF792FF5F
:102CE000A0600320FFF78EFFE060FFF799FF2061EF
:102CF000FFF792FF6061FFF759FF1222DE49DF48BC
:102D0000FFF736FA41F25049DFEDDD8ADFF874A3B0
:102D100040F6B83B9FEDDC9A0AF1280505F148061C
:102D200005F1900705F1D8089AF8080001287CD031
:102D3000032800F017810020A0612068F0EE480A07
:102D4000B0F9020000EE100AC348B8EEC00AFFF75F
:102D500061FC6068D4ED060AB0F90200F8EEE00A02
:102D600000EE100ABD48B8EEC00AFFF753FCA06899
:102D7000B0F9020000EE100AA069404200EE900A8D
:102D8000B8EEC00AB648F8EEE00AFFF743FCE06888
:102D9000D4ED060AB0F90200F8EEE00A00EE100ADF
:102DA000B048B8EEC00AFFF735FC2069F0EE480ADB
:102DB000B0F9020000EE100AAC48B8EEC00AFFF706
:102DC00029FC6069F0EE480AB0F9020000EE100A32
:102DD000A748B8EEC00AFFF71DFC98ED080ABDEE43
:102DE000C00A10EE100A97ED080A03B2BDEEC00A41
:102DF00010EE100A96ED080A02B2BDEEC00A10EEFF
:102E0000100A95ED080A01B2BDEEC00A10EE100AD4
:102E100000B2FDF745FA964890ED080ABDEEC00AEB
:102E200010EE100A01B2914800E00EE090ED080AA1
:102E300000231A46BDEEC00A10EE100A00B2FDF7DC
:102E400061FA0120FEF704F96EE7C4F81890C4E9AE
:102E5000079B2068F0EE680AB0F9020000EE100A45
:102E60007D48B8EEC00AFFF7D5FB6068D4ED060ACE
:102E7000B0F90200F8EEE00A00EE100A7748B8EE6A
:102E8000C00AFFF7C7FBA068B0F9020000EE100A05
:102E9000E069404200EE900AB8EEC00A7048F8EED1
:102EA000E00AFFF7B7FBE068D4ED070AB0F90200CB
:102EB000F8EEE00A00EE100A6A48B8EEC00AFFF722
:102EC000A9FB2069B0F9020000EE100A206A404216
:102ED00000EE900AB8EEC00A6448F8EEE00AFFF788
:102EE00099FB6069D4ED080AB0F90200F8EEE00A37
:102EF00000EE100A5E48B8EEC00AFFF78BFB98EDB3
:102F0000080ABDEEC00A10EE100A97ED080A03B2D7
:102F1000BDEEC00A10EE100A96ED080A02B2BDEE30
:102F2000C00A10EE100A95ED080A01B2BDEEC00A03
:102F300010EE100A00B2FDF7B3F94D4800231A460F
:102F400090ED080ABDEEC00A10EE100A01B2474823
:102F500090ED080ABDEEC00A10EE100A00B2FDF7AF
:102F6000D1F96EE741F2EC30A061C4E9070B2068AB
:102F7000F0EE490AB0F9020000EE100A3648B8EE49
:102F8000C00AFFF747FB6068D4ED060AB0F90200FB
:102F9000F8EEE00A00EE100A3048B8EEC00AFFF77B
:102FA00039FBA068B0F9020000EE100AE069404267
:102FB00000EE900AB8EEC00A2948F8EEE00AFFF7E2
:102FC00029FBE068D4ED070AB0F90200F8EEE00A48
:102FD00000EE100A2348B8EEC00AFFF71BFB206979
:102FE000B0F9020000EE100A206A404200EE900A9A
:102FF000B8EEC00A1D48F8EEE00AFFF70BFB606967
:10300000D4ED080AB0F90200F8EEE00A00EE100A6A
:103010001748B8EEC00AFFF7FDFA98ED080ABDEEB2
:10302000C00A10EE100A97ED080A03B2BDEEC00AFE
:1030300010EE100A96ED080A02B2BDEEC00A10EEBC
:10304000100A95ED080A01B220E00000000000001F
:1030500000401C46CC3000087C000020C40000204A
:103060000C010020540100200080BB459C01002081
:10307000E40100200000002068000020FC02002085
:103080000080A2C55400002000609FC5BDEEC00AAC
:1030900010EE100A00B2FDF703F90A4800231A46A1
:1030A00090ED080ABDEEC00A10EE100A01B2064803
:1030B00090ED080ABDEEC00A10EE100A00B2FDF74E
:1030C00021F9BEE6E40100209C0100200000A040A0
:1030D0000AD7233C00000000000610160006101658
:1030E00000000000000000000102030406070809B8
:1030F0000000000001020304183100080000002055
:10310000540000008E2B00086C3100085400002091
:10311000EC2300009E2B00080000000000000000CF
:10312000000000000000000000000000000000009F
:10313000000000000000000000000000000000008F
:103140000100000010000000000000000024F40056
:10315000000000000000000000000000000000006F
:0C31600000000000000000000000000063
:040000050800018965
:00000001FF
